:020000040800F2
:10000000400B0020D1010008ED230008E523000883
:10001000E92300084D0F0008192500080000000022
:10002000000000000000000000000000F5230008B0
:10003000510F000800000000F1230008F923000818
:10004000EB010008EB010008EB010008EB010008E0
:10005000EB010008EB010008EB010008EB010008D0
:10006000EB010008EB010008EB010008EB010008C0
:10007000EB010008EB010008EB010008EB010008B0
:10008000EB010008EB010008EB010008EB010008A0
:10009000EB010008EB010008EB010008EB01000890
:1000A000EB010008EB010008EB010008EB01000880
:1000B000EB010008EB010008EB010008EB01000870
:1000C000EB010008EB010008EB010008EB01000860
:1000D000EB0100080D250008EB010008EB0100080A
:1000E000EB010008EB010008EB01000800F002F84A
:1000F00000F05FF80AA090E8000C82448344AAF163
:100100000107DA4501D100F054F8AFF2090EBAE860
:100110000F0013F0010F18BFFB1A43F0010318473B
:10012000C82E0000E82E0000103A24BF78C878C11D
:10013000FAD8520724BF30C830C144BF04680C60ED
:10014000704700000023002400250026103A28BF35
:1001500078C1FBD8520728BF30C148BF0B60704739
:10016000692900F0CB80642900F0C880752900F06F
:10017000C5806F2900F05C81782900F083810368D5
:10018000DB0928BF41F08001632900F00884E329DE
:1001900000F01B84002070471FB500F07DFE0400B6
:1001A0000020002102F03CFD401C60601FBD10B526
:1001B00010BD00F04BFE1146FFF7EEFF02F0AAFB68
:1001C00000F06EFE03B4FFF7F2FF03BC00F0B6FED2
:1001D0000948804709480047FEE7FEE7FEE7FEE7DB
:1001E000FEE7FEE7FEE7FEE7FEE7FEE70448054917
:1001F000054A064B70470000FD230008ED0000088B
:1002000040050020400B0020400700204007002050
:100210000FB41CB5074B06AA7B44694600900598AD
:1002200000F09BFB0020694600F0AAFB1CBC5DF8B7
:1002300014FB00006507000070B50446856900687E
:10024000C10601D5302600E02026C00707D070BDCA
:10025000D4E9012130469047206A401C20626D1E7F
:10026000F6D570BD70B5044685690078C00707D122
:1002700070BDD4E9012120209047206A401C2062F3
:100280006D1EF6D570BD09684A0501D540B27047AC
:10029000C905FCD500B2704709684A0501D5C0B24E
:1002A0007047C905FCD580B2704770B50C4605464D
:1002B000012A05D02878800600D5EA69002302E0EB
:1002C000012305E05B1C934202D2E05C0028F9D1D7
:1002D000A869E618C01AA861286A18442862284646
:1002E000FFF7AAFF04E0D5E9012114F8010B9047BC
:1002F000B442F8D32846FFF7B5FF70BD2DE9F041B1
:100300000646002410687529314616A510D0FFF75F
:10031000BAFF002802DA404213A507E031688A07D5
:1003200001D512A502E0490704D511A5012401E079
:10033000FFF7B2FF00210A2206F1240709E0B0FB13
:10034000F2FCB0FBF2F302FB1C003030785418468C
:10035000491C0028F3D123462A463046BDE8F04127
:1003600000F09CBA000000002D0000002B000000EF
:10037000200000002DE9FF5F15468A460446DFF89D
:10038000AC80F8440027D8E900103E46CDE90010C3
:1003900010E03AF816106A4602A800F067FB411C0C
:1003A00007D02178890603D5E269391891420DD822
:1003B0000744761C2078800602D5E069B84205DD46
:1003C000AE42E6DB3AF816000028E2D1A069C01B75
:1003D000A0612046FFF730FFD8E90010CDE90010FA
:1003E000002017E03AF818106A4602A800F03EFB19
:1003F000B0F1FF3F81460BD000250DF1080B05E061
:10040000D4E901211BF8050090476D1C4D45F7D339
:1004100008F10100B0428046E4DB206A38442062E3
:100420002046FFF71FFFBDE8FF9F0000C628000021
:1004300070B5044621461068FFF72EFF002104F135
:10044000240505E000F007023032C0086A54491C58
:100450000028F7D12068002308A2050708D500F07E
:100460002000084304D0E069012305A2401EE0619A
:100470002046BDE8704000F011BA00000000000006
:100480003000000070B504460D4621461068FFF7A5
:1004900003FF2188090502D50F4A7A4402E00E4A7B
:1004A0007A440E32002104F1240305E000F00F0627
:1004B0000009965D5E54491C0028F7D1207800237E
:1004C000000704D5702D02D009B102231132204655
:1004D000BDE8704000F0E2B9B62700002DE9F05FFA
:1004E000894604464FF0000ADFF874B1FB44C0F8B7
:1004F00020A02046E1688847002874D0252806D02F
:10050000D4E901219047206A401C2062F1E70026CF
:100510005F462046E16888472028054607DB312DE5
:1005200005D2781910F8200C08B10643F1E7B0079E
:1005300001D526F00406C4F81CA00027C4F818A0B2
:100540002A2D09D0284602F063FB38B304EB870854
:10055000303DC8F8185019E059F8041B204604EB48
:1005600087029161E1688847012F054618D1E0694B
:10057000002820DA26F020061DE0D8F8180000EB4D
:10058000800005EB40003038C8F818002046E168CC
:100590008847054602F03CFB0028EED1012F0AD027
:1005A0002E2D08D12046E16888477F1C0546022F82
:1005B00046F02006C4DBA069002803DA404246F07A
:1005C0000106A061F00701D026F010066C2D0BD0BB
:1005D000682D09D04C2D39D06A2D35D0742D35D0E9
:1005E0007A2D33D016E038E0E1682F462046884760
:1005F000B842054609D16C2F26D04FF48060E168DF
:10060000064320468847054604E06C2F1AD04FF475
:10061000807006430DB3A5F14100192802D820359A
:1006200046F400664A462946204626604E46FFF7B5
:1006300097FD80B101280BD0F61D26F0070000F1D0
:10064000080956E74020E4E78020D8E70020D6E7F5
:1006500006F104094DE7284652E7206ABDE8F09FFD
:100660008C2700000FB400B58DB010A9099000913F
:100670000B904FF0FF300A9000200C900648784411
:100680000690064878446A4607900F9909A800F03A
:10069000BDF90DB05DF814FBAB030000C30300000F
:1006A0002DE9FF5F1D464FF0FF3B91464FF00008DC
:1006B0005F46D5E90146A96901987F1C8847296AE8
:1006C000824688470028F6D1BAF1FF3F0CD0002EB1
:1006D00024F4C06419DD600614D5BAF12B0F09D0DB
:1006E000BAF12D0F0ED103E0584604B0BDE8F09FDB
:1006F00044F48064A96901987F1C8847761E82466D
:10070000002E02DDBAF1300F03D0B9F1000F26D070
:1007100032E0A969761E01987F1C44F40074884772
:10072000002E824605DDBAF1780F06D0BAF1580FD7
:1007300003D0B9F1000F10D01EE0B9F1000F02D0C4
:10074000B9F1100F18D1A969761E01987F1C24F405
:10075000007488478246102002E0082000E00A204A
:10076000814609E0A96908FB0908761E01987F1CEB
:1007700044F4007488478246002E05DD4946504601
:1007800000F02FF90028EDDAE96901988847A00503
:1007900002D46FF00100A8E7E00725D1600613D569
:1007A000600502D5C8F1000000E0404629680A1D36
:1007B0002A600968220501D5087015E0220701D5D5
:1007C000088011E008600FE02868011D29600068BA
:1007D000210502D580F8008006E0210702D5A0F8A7
:1007E000008001E0C0F8008038467EE730B505465D
:1007F0000B462A4613F8014B12F8010B08B1A04230
:10080000F8D01CB1002802D06D1CF1E7284630BD9D
:1008100040EA0103024630B59B0710D14FF0013486
:1008200000E008C208C91D1B9D4315EAC41FF8D08B
:1008300013F0FF0102F8011B0DD01B0AF8E711F8B5
:10084000013B002B02F8013B05D011F8013B002BC6
:1008500002F8013BF3D130BD10B5431C02E010F8A3
:10086000011B71B18107FAD14FF0013202C88C1A15
:100870008C4314EAC211F9D0C01A0A0603D0C01E74
:1008800010BDC01A10BD0A0401D0801E10BD09029F
:10089000FCD0401E10BD7047704770472DE9F047EF
:1008A0000D4699469246044600F1240801688806E0
:1008B00004D5E06921F01001216000E00120A84288
:1008C00001DD471B00E00027A1697A1902EB09004E
:1008D000081AA0612078C00602D42046FFF7ACFCBD
:1008E000002608E0D4E901211AF806009047206AA2
:1008F000401C761C20624E45F4DB2078C0060AD5E9
:100900002046FFF799FC06E0D4E90121302090470A
:10091000206A401C2062381EA7F10107F4DC07E0C2
:10092000D4E9012118F805009047206A401C206294
:10093000281EA5F10105F3DC2046FFF793FC207883
:10094000000602D50220BDE8F0870120FBE7000089
:1009500001694A1C02610878704700B58FB0CDE983
:1009600001310021059105497944CDE90310114673
:100970006846FFF7B3FD0FB000BD0000E5FFFFFFC5
:100980000A6802F8010B0A60704710B5436913B199
:10099000AFF3008001E0FFF788FC012010BD127862
:1009A00000F124010A7000224A700122EDE711686B
:1009B0004FF0FF32E9E710B5436913B1AFF30080A0
:1009C00001E0FFF7D7FC012010BD128800F12401DF
:1009D00082840022C2840122EDE711684FF0FF32C9
:1009E000E9E73A2800D2303820F02002412A01D32A
:1009F000A2F13700884201D34FF0FF30704700006A
:100A0000026811441378016018467047D1600549A7
:100A10007944516104497944116200211161114600
:100A200000F05AB8EDFFFFFFAB000000426842B192
:100A3000016811F8013B23B1521EC0E900121846AB
:100A400070470121C160881E704742685AB1C3686F
:100A5000016843B983688B4205D0491E521CC0E926
:100A60000012002070474FF0FF3070472DE9F04131
:100A700016460C46054600F01DF8036893F8010180
:100A8000012807D0FF2C12D8185D80B101202C70EE
:100A9000BDE8F081D3F807013246214603F207137F
:100AA000C7182846BC46BDE8F041002360474FF018
:100AB000FF30EDE710B500F0EFF9001D10BD00BFED
:100AC0006121000010B50446FFF7F4FF0068005DE7
:100AD00000F0010010BD00002DE9F34F4FF0000AB7
:100AE0000C4656468DB001200C9001F10C000B9085
:100AF00062690B9801219047051E2DD0252D2CD021
:100B0000216A8847C0B162690B9801219047216A28
:100B100088470028F7D16269411E0B98904700E092
:100B2000761CA1690D988847216A88470028F7D16B
:100B3000E1690D988847DBE7A1690D988847A842CD
:100B4000074601D1761CD3E7E1690D9888477F1CE1
:100B500002D1BAF1000F6FD06BE162690B980027E8
:100B60003D46394690472A2804D162690B980121F5
:100B700090470125DFF8D08262690B9801219047E8
:100B8000A0F130010A290AD24745E5DC07EB8701CD
:100B900000EB4107303FDFD445F01005ECE7E906F4
:100BA00001D46FF000476C280AD04C2814D0682874
:100BB00015D06A280DD074281CD07A281AD01DE0D0
:100BC00062690B98012190476C2802D045F004051A
:100BD00014E045F002050DE045F020050AE06269E9
:100BE0000B9801219047682802D045F0080505E0E0
:100BF00045F4006562690B9801219047C4E90157EB
:100C000065283DD019DC58287AD00CDC452837D02F
:100C100004DC252826D041289ED131E046282FD05B
:100C2000472899D12CE05B2877D0612828D0632809
:100C30007CD0642823D15AE0F6E06F2848D008DC45
:100C400066281DD067281BD0692821D06E2816D1B0
:100C500027E0702845D0732868D0752847D07828B9
:100C60000DD14DE0A1690D988847252805463FF430
:100C700069AFE1690D9888476D1C3FF46AAFD8E011
:100C80000D9923466A466FF00100AFF30080C5E07E
:100C900045F0400023464FF000026060A80736D4BC
:100CA0003EE0E8077FF447AF2068011D216000683F
:100CB000290501D506701BE7290701D5068017E72E
:100CC000A90703D5F117C0E9006111E706600FE736
:100CD00045F0400023464FF008026060A80716D494
:100CE0001EE040F60E0125EA0100606016E045F0C6
:100CF000400023464FF00A026060A80707D40FE0C7
:100D000045F040006060A80708D5234610220D99E1
:100D10006FF00100AFF3008080E007E0102223466F
:100D20000D996FF00100FFF7BBFC77E04FF0000971
:100D300063284F46C8464B46CB4602D05B2806D0B8
:100D400038E0E80601D40120A060012732E06269A2
:100D5000D4F80CB00B98012190475E2807D14FF0D2
:100D6000010949466269D4F80CB00B989047216993
:100D700039B900210A4603AB43F82120491C082950
:100D8000FADBD8B3216949B308F1010862690B980D
:100D9000012190475D28F4D1B9F1000F09D000205E
:100DA00003A951F82020D24341F82020401C0828F4
:100DB000F7DB03AB2069002820794FEA40701ED092
:100DC0005B462246CDF80080CDE901970D990028B9
:100DD0006FF0010020DAAFF300801FE0C11703AA13
:100DE00000EBD1614B1121F01F0102EB8302411A8C
:100DF00013680120884003431360C7E719E00D9989
:100E0000224600286FF00100009702DAAFF300805D
:100E100004E0AFF3008001E0AFF3008000280ADABD
:100E2000401C06D10C9820B14FF0FF300FB0BDE848
:100E3000F08F5046FAE7E90701D10AF1010A0644AA
:100E400000200C9054E60000CCCCCC0C754600F091
:100E500031F8AE4605006946534620F00700854646
:100E600018B020B5FFF7C2F9BDE820404FF00006EA
:100E70004FF000074FF000084FF0000BAC46ACE815
:100E8000C009ACE8C009ACE8C009ACE8C00921F071
:100E900007018D4670470000004870473000002071
:100EA00010B50446AFF300802046BDE81040FFF7C0
:100EB00089B9000000487047100000204FF0013C45
:100EC00050F8042B51F8043B9A4221D1A2EB0C03B9
:100ED000934313EACC1317D150F8042B51F8043B79
:100EE0009A4215D1A2EB0C03934313EACC130BD116
:100EF00050F8042B51F8043B9A4209D1A2EB0C03A1
:100F0000934313EACC13DBD04FF00000704700BFCF
:100F1000D01A01BAB1FA81F101F0180122FA01F0F8
:100F2000CB40DBB2C0B2C01AC1F120012CFA01F3F0
:100F3000D11A914311EAC311E6D170470149182033
:100F4000ABBEFEE72600020070470000FEE700008F
:100F500070470000014690F82100022816D1086869
:100F6000D1E90FC3026822F00E020260026822F08B
:100F700001020260012000FA03F2CCF8042081F89B
:100F800021000020002281F820207047042088637F
:100F90000120002281F820207047000080B590F8E1
:100FA0002110022924D10268116821F00E0111607C
:100FB0002F211368C4F202018A4240F20401C4F2F4
:100FC000020123F00103136016DD3023C4F2020393
:100FD0009A421DD04423C4F202039A421CD05823E3
:100FE000C4F202039A421DD14FF4803322E000BFC5
:100FF00004218163012080BD0823C4F202039A42C8
:101000000ED01C23C4F202039A420BD1102311E02C
:101010004FF480730EE000BF4FF480530AE000BF2E
:10102000012307E001F1680C4FF08073624508BFAF
:101030004FF480130B60012180F82110426B0021D6
:1010400080F820100AB190470021084680BD0000BA
:101050002DE9F04F82B00E68002E00F0038141F2BE
:101060000042C4F20102042340F2004E904208BF45
:1010700003234FF6FF7CC4F2010E009300240123EA
:10108000C1F2100C4FF0000A4FF0000949E000BF18
:10109000012704F00C030F229A402BEA020207FA00
:1010A00003F34FEA9A051A4346F82520D1F804B015
:1010B00040F20C455FEACB22DEF8082054BF22EA5A
:1010C000080242EA0802C4F20105CEF808202A68A4
:1010D0005FEA8B2354BF22EA080242EA08022A6030
:1010E0005FEA8B33DEF8042054BF22EA080242EAAA
:1010F00008025FEACB33CEF80420DEF800204FF080
:10110000010354BF22EA080242EA0802CEF8002096
:101110000E680AF1010A36FA0AF204F1040400F03A
:10112000A18003FA0AF816EA080FF1D04E68664566
:1011300012DC122E56D8DFE806F0350B454955551E
:1011400055555555555555555555554D510000BF9B
:10115000D1F80C9046E000BF4FF6FF72C1F22102B9
:1011600096420FDC0022C1F2110296421AD00022F0
:10117000C1F21202964215D00022C1F2210296421B
:1011800010D02FE00022C1F2220296420AD00022A3
:10119000C1F23102964205D00022C1F232029642DB
:1011A00020D100BF8A684AB1012A14BFC0F8148058
:1011B000C0F810804FF0080914E000BF4FF0040998
:1011C00010E000BFCA6802F108090BE04FF0000907
:1011D00008E000BFCA6802F1040903E0CA6802F12E
:1011E0000C0900BF22460646BAF1080F24BF203A78
:1011F000043637680F25954027EA050509FA02F2FB
:101200002A433260CA79D2067FF582AF41F21803D1
:10121000C4F202031A68AEF57E7642F001021A604B
:101220001A6802F001020192019A2AF0030256F8AC
:1012300002B040F60002C4F20102904210D040F623
:101240000042C4F2010290423FF422AF41F2000298
:10125000C4F20102009F904208BF022719E700BFB5
:10126000002716E702B0BDE8F08F0000C26802EA6E
:101270000103914341EA034101617047002A08BF1D
:10128000090401617047000040F2BC00C2F2000096
:101290000068704740F2000040F2BC01C2F200005A
:1012A000C2F2000100780A6810440860704700002C
:1012B00080B542F20000C4F20200016841F0100162
:1012C0000160032000F08EF80F2000F005F800F018
:1012D00027F8002080BD000070B540F20006C2F281
:1012E000000640F208013278C2F200014FF47A732E
:1012F0000968B3FBF2F20446B1FBF2F1084600F0D4
:1013000063FB0F2C4FF0010508D838B94FF0FF30C0
:1013100021460022002500F039F87460284670BD8F
:1013200082B041F21800C4F202000168022241F0CA
:1013300001010160016801F0010101910199416819
:1013400041F080514160406800F08050009000986A
:101350000420C4F20100016862F31A61016002B066
:1013600070470000002848BF7047C1B200F01F005E
:10137000012202FA00F04EF20012CEF2000242EA1E
:10138000D10121F0030108607047000010B54EF64E
:101390000C5CCEF2000CDCF80030C3F3022E8EF0B1
:1013A0000704042C28BF0424BEF103034FF0FF3EC2
:1013B0000EFA04F438BF0023A14399400EFA03F358
:1013C0009A43114300F00F0200F160430901043A0F
:1013D00003F564436244002848BF02F10C0319700E
:1013E00010BD00004EF60C51CEF200010A684FF617
:1013F000FF031A4060F30A2242F0806040F0FD7063
:10140000086070472DE9F04381B0002800F0858026
:1014100042F20008C4F202080446D8F800000D4663
:1014200000F0070088420CD2D8F8000020F0070036
:101430002843C8F80000D8F8000000F00700A842D0
:101440006BD1206841F204098107C4F2020917D563
:10145000410705D5D9F8001041F4E061C9F8001042
:10146000010705D5D9F8001041F46051C9F8001002
:10147000D9F80010A26821F0F0011143C9F800105A
:10148000C00741D1D8F8000000F00700A8420CD9ED
:10149000D8F8000020F007002843C8F80000D8F86A
:1014A000000000F00700A84237D12068410707D5A7
:1014B000D9F80010E26821F4E0611143C9F8001086
:1014C000000708D5D9F80000216920F4605040EAEF
:1014D000C100C9F80000D9F8002002F00C0008286B
:1014E00041F20020C0F27A0050D142F6A743C2F385
:1014F0008341C0F60003595CD2033BD440F6001090
:10150000C0F23D00484341E0606802280AD001284B
:101510002AD159F8041C890308D4012001B0BDE880
:10152000F08300BF59F8041C8901F6D5D9F80010E2
:1015300021F003010843C9F80000FFF7A5FE0646A5
:1015400041F28837D9F80000616800F00C00B0EB78
:10155000810F97D0FFF798FE801BB842F2D9032085
:1015600001B0BDE8F08300BF59F8041C8907D4D549
:10157000DCE700BFD9F8002042F6A543C2F34042A1
:10158000C0F600039A5C4843B0FBF2F0D9F80010B3
:1015900042F68D42C1F30311C0F60002515C40F2E5
:1015A000080220FA01F140F20400C2F200000068D3
:1015B000C2F200021160FFF78FFE002001B0BDE80B
:1015C000F083000040F2080041F20401C2F2000082
:1015D000C4F202010068096842F69D42C1F302218B
:1015E000C0F60002515CC8407047000040F208009D
:1015F00041F20401C2F20000C4F20201006809686D
:1016000042F69D42C1F3C221C0F60002515CC840BF
:10161000704700002DE9F04182B0002868D00446F0
:10162000007841F20006C007C4F2020625D07068B7
:1016300000F00C0004281BD0706800F00C00082893
:1016400002D17068C00313D46068002800F068817C
:10165000B0F5A02F00F07C81B0F5803F00F07C81D8
:10166000306820F480303060306820F4802076E1EB
:101670003068800301D56068D0B32078800718D522
:10168000706810F00C0F07D0706800F00C0008288C
:101690006ED17068C0036BD43068800702D52069B2
:1016A000012825D13068616920F0F80040EAC100C6
:1016B0003060207800071FD42078400732D4E569D5
:1016C00095B1706800F00C00082840F08F80012D63
:1016D0000ED07068216A00F480328A4208D1616AB3
:1016E00000F47010884203D1002002B0BDE8F08100
:1016F000012002B0BDE8F081A069002862D000207E
:10170000C4F242200121C0F88014FFF7BDFD054658
:10171000706A800700F18C80FFF7B6FD401B02283D
:10172000F6D92AE1F06910F0805808D1F06940F04C
:101730008050F061F06900F080500090009847F20E
:101740000007C4F200073868C00529D4386840F49F
:1017500080703860FFF798FD054600BF3868C00507
:101760001ED4FFF791FD401B6428F7D905E100BFA7
:101770002069002840F20000C4F2422000F082807C
:1017800001210160FFF780FD054600BF306880073A
:101790003FF588AFFFF778FD401B0228F6D9ECE053
:1017A000E068002800F08080052800F0978001287C
:1017B00000F09880306A20F001003062306A20F03A
:1017C000040092E00020C4F242200021C0F88014FE
:1017D000FFF75AFD054600BF706A80077FF56CAFC2
:1017E000FFF752FD401B0228F6D9C6E00027C4F2DD
:1017F000422700203866FFF747FD022D05460BD132
:101800003068800140F1BE80FFF73EFD401B02289A
:101810004FF00300F4D968E7306880017FF564AFCA
:10182000FFF732FD401B02284FF00300F4D95CE7BC
:1018300040F20800C2F20000006844F6D351C1F241
:101840006201A0FB0101480A019000BF00BF01989E
:10185000411E002801913FF42FAF00BF0198411EA7
:10186000002801913FF428AF00BF0198411E0028D5
:1018700001913FF421AF00BF0198411E0028019162
:10188000E4D119E700210160FFF7FEFC054600BF27
:10189000306880077FF50DAFFFF7F6FC401B02288C
:1018A0004FF00300F4D920E7306A20F001003062E5
:1018B000306A20F004003062FFF7E6FC054641F292
:1018C000883700BF306A800720D5FFF7DDFC401B5A
:1018D000B8424FF00300F5D907E700BF306A40F087
:1018E00004003062306A40F001003062FFF7CCFC47
:1018F000054641F2883700BF306A800706D4FFF7FB
:10190000C3FC401BB842F7D937E000BFB8F1000F65
:101910007FF4D5AEF06920F08050F061CFE600BFD3
:10192000306820F480303060306820F480203060EF
:10193000FFF7AAFC054600BF306880037FF59DAE27
:10194000FFF7A2FC401B64284FF00300F4D9CCE65B
:10195000306840F480203060306840F4803030607F
:10196000FFF792FC054600BF306880033FF585AE67
:10197000FFF78AFC401B6428F6D9032002B0BDE8BB
:10198000F08100BF206AB0F5803F05D17168A26880
:1019900021F40031114371607168626A21F474119D
:1019A00011430843706001203866FFF76DFC044660
:1019B000306880013FF598AEFFF766FC001B0228F7
:1019C0004FF00300F4D990E6411E0020B0EB116FF8
:1019D0001CBF012070474EF21002CEF2000251608F
:1019E0004EF62351CEF20001F0230B7007219060D8
:1019F000116070477047000070470000B0B582B0BA
:101A0000044600680168C368426901F02F05202D73
:101A100003F0200506D12DB1204602B0BDE8B0404C
:101A200000F0F4BC5FEA017C1EBF02F0010E03F47B
:101A3000907212EB0E0253D1226B012A05D111F0E4
:101A4000100218BF13F0100236D10A0622D513F087
:101A500080021FD094F8411021293FD1A168B1F52F
:101A6000805F03D12169002900F07082216A4A1C3D
:101A7000226209784160E18C01390A04E1842DD1A8
:101A8000C16821F08001C160C16841F04001C160BE
:101A900002B0B0BD490621D513F040011ED0C16887
:101AA00021F04001C1602021204684F8411002B09D
:101AB000BDE8B04000F094BC0021019101680191A3
:101AC0004168019101994069400613D4A08DE18DD0
:101AD000E28D002A18BF884240F0BA8102B0B0BD42
:101AE000CA0718BF13F4807240F0B6804A0700F1AD
:101AF000B980BEE0E06B016849688AB2002AEDD087
:101B0000A38D9A42EAD2E1858069202800F09C806A
:101B1000206850E8030F216820F4807041E8030238
:101B2000DAB1206850E8030F216820F4807041E8A2
:101B3000030292B1206850E8030F216820F48070FE
:101B400041E803024AB1206850E8030F216820F4FD
:101B5000807041E80302002ADAD1206850E8050FBE
:101B6000216820F0010041E80502DAB1206850E860
:101B7000050F216820F0010041E8050292B12068BC
:101B800050E8050F216820F0010041E805024AB144
:101B9000206850E8050F216820F0010041E80502A7
:101BA000002ADAD1206850E8050F216820F04000B3
:101BB00041E80502DAB1206850E8050F216820F0FD
:101BC000400041E8050292B1206850E8050F216805
:101BD00020F0400041E805024AB1206850E8050FB6
:101BE000216820F0400041E80502002ADAD12020D7
:101BF00084F8420000202063206850E8030F216829
:101C000020F0100041E80302DAB1206850E8030F29
:101C1000216820F0100041E8030292B1206850E8EA
:101C2000030F216820F0100041E803024AB1206848
:101C300050E8030F216820F0100041E80302002A59
:101C4000DAD1E06BFFF786F902206063A08DE18DA9
:101C5000401A81B2204674E1626C42F00102626473
:101C60004A0706D5BEF1000F03D0626C42F00202B3
:101C700062648A0706D5BEF1000F03D0626C42F0A1
:101C800004026264BCF1000F09D545EA0E02B2FA03
:101C900082F2520903D1626C42F008026264626C03
:101CA000002A3FF41BAF11F0200118BF002D03D014
:101CB000204600F0ABFB20684069616C00F04000FA
:101CC00001F00801401800F0B58000BF206850E81E
:101CD000030F216820F4907041E80302BAB3206832
:101CE00050E8030F216820F4907041E8030272B3BA
:101CF000206850E8030F216820F4907041E8030247
:101D00002AB3206850E8030F216820F4907041E85E
:101D10000302002ADAD11AE0206850E8050F216892
:101D200020F0010041E80502DAB1206850E8050F13
:101D3000216820F0010041E8050292B1206850E8D6
:101D4000050F216820F0010041E805024AB1206832
:101D500050E8050F216820F0010041E80502002A43
:101D6000DAD1206B012824D1206850E8030F2168C4
:101D700020F0100041E80302DAB1206850E8030FB8
:101D8000216820F0100041E8030292B1206850E879
:101D9000030F216820F0100041E803024AB12068D7
:101DA00050E8030F216820F0100041E80302002AE8
:101DB000DAD1202084F842000020206320684069A6
:101DC00040063FD5206850E8050F216820F040000C
:101DD00041E80502DAB1206850E8050F216820F0DB
:101DE000400041E8050292B1206850E8050F2168E3
:101DF00020F0400041E805024AB1206850E8050F94
:101E0000216820F0400041E80502002ADAD1E06BA9
:101E1000C0B142F20141C0F600014163FFF7BEF8D4
:101E200000283FF45BAEE06B416B02B0BDE8B04010
:101E3000084700BF2046FFF7DFFD0020606402B0C6
:101E4000B0BD00BF204602B0BDE8B040FFF7D4BD32
:101E5000401A216851E8031F226821F4907142E87A
:101E60000313DBB1216851E8031F226821F490714C
:101E700042E8031393B1216851E8031F226821F45B
:101E8000907142E803134BB1216851E8031F2268A7
:101E900021F4907142E80313002BDAD1216851E854
:101EA000051F226821F0010142E80513DBB121681A
:101EB00051E8051F226821F0010142E8051393B1A2
:101EC000216851E8051F226821F0010142E805134D
:101ED0004BB1216851E8051F226821F0010142E859
:101EE0000513002BDAD1202184F842100021216350
:101EF000216851E8031F226821F0100142E8031312
:101F0000DBB1216851E8031F226821F0100142E88B
:101F1000031393B1216851E8031F226821F01001D7
:101F200042E803134BB1216851E8031F226821F0F6
:101F3000100142E80313002BDAD1022281B22046BD
:101F4000626302B0BDE8B040FFF754BD216A31F8CA
:101F5000022B6FF35F22426021628CE5002804BFF0
:101F60000120704710B5044690F8410028B90020C0
:101F700084F84000204600F063F8242084F84100F3
:101F80002068D4E90212C36823F40053C3600369D4
:101F900023F440531A430261D4E904231143C26875
:101FA000194341F20C639A431143C1604169A2692C
:101FB00021F44071114343F60002C4F20102904241
:101FC000416103D0FFF7FEFA02E000BFFFF70EFB0E
:101FD0006268192148439100B0FBF1F048F21F51AB
:101FE000C5F2EB11A0FB01235A094FF69C73C0F612
:101FF000FF7302FB0300322303EB0010A0FB01017F
:10200000F02303EA5113206803EB0212C1F34311DA
:1020100011448160016921F490410161416921F01D
:102020002A014161C16841F40051C16000202021B2
:10203000606484F8411084F84210606310BD0000B1
:1020400070B586B040F60004C4F20104006804F5DF
:10205000405100268842049602D006B070BD00BFF1
:1020600041F21800C4F20200016802AD41F480415F
:102070000160016801F4804101910199016841F01A
:10208000040101600068294600F0040001900198F5
:102090004FF4007002900220039003200590204628
:1020A000FEF7D6FF4FF48060CDE9020620462946B0
:1020B0000496FEF7CDFF252001210022FFF766F9E7
:1020C0002520FFF74FF906B070BD000090F84230B0
:1020D000202B1CBF0220704700294FF0010318BFBE
:1020E000002A01D118467047002303638162222130
:1020F0008285C285436480F842100169006819B185
:10210000C16841F48071C1604169002341F001015F
:102110004161C16841F02001C1601846704700006C
:1021200040F27001C2F2000100684968884240F242
:10213000C001C2F2000110D140688A7A072A0AD889
:10214000531C8B72C3B20A2B885406D101204872EB
:10215000887A00220A54002088728A7AD1F81404FE
:1021600011440122FFF7B2BF2DE9F04381B00446CC
:1021700090F84100202840F0B180884600294FF0B7
:10218000010000F0D6801646002A00F0D280002020
:10219000606421201D4684F84100FFF775F8A6848D
:1021A000E684A1680646B1F5805F03D12069002866
:1021B00000F0988047464FF00008E18C2068002925
:1021C00000F0968005F101090BE000BF47B317F856
:1021D000011B4160E18C0139E184E18C002900F0B0
:1021E000878001680906F1D4B9F1000F0AD0EDB17A
:1021F000FFF74AF8801BA84218D820680168090632
:10220000F6D5E3E701680906E0D4016809065CBF7A
:1022100001685FEA0161D9D401680906F2D5D5E702
:1022200038F8021B00276FF35F21D2E7206850E8DF
:10223000030F216820F4D07041E80302BAB320688C
:1022400050E8030F216820F4D07041E8030272B314
:10225000206850E8030F216820F4D07041E80302A1
:102260002AB3206850E8030F216820F4D07041E8B9
:102270000302002ADAD11AE0206850E8050F21682D
:1022800020F0010041E80502DAB1206850E8050FAE
:10229000216820F0010041E8050292B1206850E871
:1022A000050F216820F0010041E805024AB12068CD
:1022B00050E8050F216820F0010041E80502002ADE
:1022C000DAD1202084F8410084F84200002084F80C
:1022D0004000032001B0BDE8F08300BF022001B040
:1022E000BDE8F0830027E18C206800297FF46AAF05
:1022F0000168490619D4FDB1691C0DD10168490670
:1023000013D4016849065CBF01685FEA41610CD4DF
:1023100001684906F2D508E0FEF7B6FF801BA84227
:102320000AD8206800684006F6D5202084F84100CD
:10233000002001B0BDE8F083206850E8030F216859
:1023400020F4D07041E80302002A3ED0206850E813
:10235000030F216820F4D07041E80302AAB320687B
:1023600050E8030F216820F4D07041E8030262B303
:10237000206850E8030F216820F4D07041E8030280
:10238000002AD9D121E000BF206850E8050F21685C
:1023900020F0010041E80502002A3FF492AF2068D6
:1023A00050E8050F216820F0010041E80502002AED
:1023B0003FF487AF206850E8050F216820F0010046
:1023C00041E80502002A3FF47CAF206850E8050F81
:1023D000216820F0010041E80502002AD4D170E70D
:1023E00070470000FEE70000FEE70000FEE7000087
:1023F0007047000070470000FEF74CBF70470000B8
:10240000406A0021C185C184FFF7F6BA81B090F817
:102410004210222921D183680246B3F5805F09D199
:1024200052F8281F52F8183C002B63D003685B68F1
:102430000AE000BF52F8281F13B90369002BF5D03A
:1024400003685B6803F07F030B7011680131116052
:10245000C18D01390A04C18502D001B0704700BFA7
:102460000168CA6822F02002CA60CA6822F4807239
:10247000CA604A6922F001024A61202180F84210B4
:1024800000214163026B012A3CD10163016851E8DC
:10249000031F026821F0100142E80313DBB1016859
:1024A00051E8031F026821F0100142E8031393B1C1
:1024B000016851E8031F026821F0100142E803138C
:1024C0004BB1016851E8031F026821F0100142E896
:1024D0000313002BDAD101680A68D20606D5002260
:1024E00000920A680092496800910099818D01B0BC
:1024F000FFF780BA026852686FF35F2221F8022B5F
:102500008162A5E701B0FFF70BBE000040F2740046
:10251000C2F20000FFF772BAFEE7000070B5D0F813
:10252000181400F10B0405462046FEF771F9D5F8A2
:102530001464FEF791F982B2304621466423FFF716
:1025400013FED5F81C142046FEF762F9D5F8146482
:102550002046FEF781F982B2304621466423FFF718
:1025600003FED5F820142046FEF752F9D5F814647E
:102570002046FEF771F982B2304621466423FFF708
:10258000F3FDD5F824142046FEF742F9D5F814647B
:102590002046FEF761F982B2304621466423FFF7F8
:1025A000E3FDD5F828142046FEF732F9D5F8146477
:1025B0002046FEF751F982B2304621466423FFF7E8
:1025C000D3FDD5F82C142046FEF722F9D5F8146473
:1025D0002046FEF741F982B2304621466423FFF7D8
:1025E000C3FDD5F830142046FEF712F9D5F814646F
:1025F0002046FEF731F982B2304621466423FFF7C8
:10260000B3FDD5F834142046FEF702F9D5F814646A
:102610002046FEF721F982B2304621466423FFF7B7
:10262000A3FDD5F838142046FEF7F2F8D5F8146467
:102630002046FEF711F982B2304621466423FFF7A7
:1026400093FDD5F83C142046FEF7E2F8D5F8146463
:102650002046FEF701F982B2304621466423FFF797
:1026600083FDD5F840142046FEF7D2F8D5F814645F
:102670002046FEF7F1F882B2304621466423FFF788
:1026800073FDD5F870142046FEF7C2F8D5F814642F
:102690002046FEF7E1F882B2304621466423FFF778
:1026A00063FDD5F844142046FEF7B2F8D5F814645B
:1026B0002046FEF7D1F882B2304621466423FFF768
:1026C00053FDFEF7E1FDC5F8100400BFFEF7DCFD89
:1026D000D5F81014401AB0F5FA6FF7D3D5F84814AE
:1026E0002046FEF795F8D5F81464FEF7B5F882B2E7
:1026F000304621466423FFF737FDD5F84C142046B9
:10270000FEF786F8D5F814642046FEF7A5F882B2E5
:10271000304621466423FFF727FDD5F850142046A4
:10272000FEF776F8D5F814642046FEF795F882B2E5
:10273000304621466423FFF717FDD5F85414204690
:10274000FEF766F8D5F814642046FEF785F882B2E5
:10275000304621466423FFF707FDD5F8581420467C
:10276000FEF756F8D5F814642046FEF775F882B2E5
:10277000304621466423FFF7F7FCD5F85C14204669
:10278000FEF746F8D5F814642046FEF765F882B2E5
:10279000304621466423FFF7E7FCD5F86014204655
:1027A000FEF736F8D5F814642046FEF755F882B2E5
:1027B000304621466423FFF7D7FCD5F86414204641
:1027C000FEF726F8D5F814642046FEF745F882B2E5
:1027D000304621466423FFF7C7FCD5F8681420462D
:1027E000FEF716F8D5F814642046FEF735F882B2E5
:1027F000304621466423FFF7B7FCD5F87014204615
:10280000FEF706F8D5F81454FEF726F882B22846EB
:1028100021466423BDE87040FFF7A6BC70B50446AE
:10282000407A002808BF70BD20786438122852D83A
:10283000DFE800F00A145151515151515151515199
:1028400022515151515132002EA12046FDF7CEFFA9
:10285000002840D0D4F8401407E000BF2BA1204648
:10286000FDF7C4FFB8B3D4F8681404F10B0528468B
:10287000FDF7CEFF24E000BF1AA12046FDF7B6FF0A
:1028800048B304F20C4218A12046FDF7EBFED4F841
:10289000741494F80C240EE016A12046FDF7A6FF50
:1028A000C8B104F20B4214A12046FDF7DBFED4F8B8
:1028B000781494F80B2404F10B052846FDF7A8FCC6
:1028C000D4F814642846FDF7C7FF82B23046294683
:1028D0006423FFF749FC002060722060C4F8030005
:1028E00070BD00BF706F7300706F732025686875CE
:1028F0000000000076656C0076656C2025686875C0
:102900000000000064697361626C6500656E61625D
:102910006C65000090B0FEF7CBFC00240120CDE9EF
:102920000B44CDE909440A9010200B904FF460103D
:1029300002250F9006A8CDE907440695CDE90D5470
:10294000FEF768FE20B1EFF3108072B6FEE700BF1D
:102950000F20CDE901054FF48060CDE9040401A802
:1029600002210394FEF74EFD20B1EFF3108072B602
:10297000FEE700BF41F21800C4F20200016841F214
:10298000000441F0100101600168C4F2010401F08B
:102990001001069106990168002241F020010160B2
:1029A00001684FF4005501F0200106910699016875
:1029B000002741F00401016000684FF4005100F06D
:1029C0000400069006982046FEF758FC0120CDE949
:1029D00007070220099006A920460695FEF738FB56
:1029E00040F27006C2F2000604F52051304640F86D
:1029F000041F4FF4E1310C22C0E90117C0E903774D
:102A0000C0E90527C761FFF7A9FA28B1EFF31080E5
:102A100072B600BFFEE700BF40F2C005C2F200057B
:102A2000311D284600F01EF82846FFF777FDD5F83F
:102A3000140429460122FFF749FB00BF2846FFF78F
:102A4000EDFEFEF721FC3168401AB0F5967FF5D314
:102A500020464FF40051FEF709FCFEF715FC3060EC
:102A6000ECE7000070B542F6B74442F6366542F630
:102A7000D846002242F6C07342F6545C42F6C35E6A
:102A8000C0F60004C0F60005C0F60006A0F8092054
:102A9000A0F80B24C0F60003C0F6000CC0F6000E30
:102AA000C0F81024C0F81414C0F82444C0F8285406
:102AB000C0F82C6442F6136142F6255242F6FD46F8
:102AC00042F6A06542F66264C0F81834C0F81CC42F
:102AD000C0F820E4C0F60001C0F6000242F6C96367
:102AE000C0F60006C0F60005C0F6000442F6027CFF
:102AF00042F62E7EC0F60003C0F6000CC0F6000EB3
:102B0000C0F83014C0F83424C0F83C64C0F8405415
:102B1000C0F8444442F6917142F6607242F6715632
:102B200042F69B5542F6E854C0F83834C0F848C421
:102B3000C0F84CE4C0F60001C0F6000210A3C0F6D5
:102B40000006C0F60005C0F600040FF2540C0FF2A8
:102B5000880EC0F85014C0F85424C0F85834C0F897
:102B60005C64C0F86054C0F86444C0F868C4C0F83D
:102B70006CE421A100F58E6020A222A30EC070BDDE
:102B8000772061786973312E636F6E74726F6C6C2D
:102B900065722E696E7075745F706F7320310A00F4
:102BA000772061786973312E72657175657374650C
:102BB000645F737461746520415849535F53544195
:102BC00054455F434C4F5345445F4C4F4F505F4318
:102BD0004F4E54524F4C0A00772061786973312E62
:102BE000636F6E74726F6C6C65722E696E70757443
:102BF0005F76656C20350A0073730A0074203120FB
:102C000025640A0076203120256420300A00000067
:102C100030380A2801D20120704700207047000098
:102C200010B500290AD00878002807D00548784454
:102C3000FEF744F9002801D0002010BD0248784476
:102C400010BD0000DA030000D20300000000000005
:102C500000000000303132333435363738394142E4
:102C600043444546403058003031323334353637EE
:102C7000383961626364656640307800040000089A
:102C80000000000000000002000100001000000031
:102C9000000000000001020304060708090000000C
:102CA0000001020304010202030405060708090AE1
:102CB0000B0C0D0E0F1010772061786973312E65A3
:102CC0006E636F6465722E636F6E6669672E6370E4
:102CD0007220343030300A00772061786973312EE9
:102CE0006D6F746F722E636F6E6669672E63757297
:102CF00072656E745F6C696D2031300A00772061F7
:102D0000786973312E636F6E74726F6C6C65722E9E
:102D1000636F6E6669672E76656C5F6C696D69744A
:102D20002032300A00772061786973312E6D6F741C
:102D30006F722E636F6E6669672E746F7271756540
:102D40005F636F6E7374616E7420382E32372F316B
:102D500034300A007720636F6E6669672E62726195
:102D60006B655F726573697374616E636520320AA7
:102D700000772061786973312E636F6E74726F6CA7
:102D80006C65722E636F6E6669672E636F6E747208
:102D90006F6C5F6D6F646520320A0077206178691F
:102DA00073312E636F6E74726F6C6C65722E636F0D
:102DB0006E6669672E696E7075745F6D6F646520ED
:102DC000320A007720636F6E6669672E64635F6DF9
:102DD00061785F6E656761746976655F637572724D
:102DE000656E74202D330A00772061786973312E67
:102DF000636F6E74726F6C6C65722E636F6E666952
:102E0000672E76656C5F72616D705F7261746520AC
:102E1000350A00772061786973312E6D6F746F7297
:102E20002E636F6E6669672E706F6C655F70616987
:102E3000727320370A00772061786973312E6D6FC5
:102E4000746F722E636F6E6669672E63616C696260
:102E5000726174696F6E5F63757272656E7420382B
:102E60000A00772061786973312E72657175657318
:102E70007465645F737461746520415849535F538E
:102E8000544154455F46554C4C5F43414C49425276
:102E90004154494F4E5F53455155454E43450A00F5
:102EA000772061786973312E726571756573746509
:102EB000645F737461746520415849535F53544192
:102EC00054455F49444C450A007720617869733165
:102ED0002E6D6F746F722E636F6E6669672E6D6FE5
:102EE000746F725F74797065204D4F544F525F5408
:102EF0005950455F484947485F43555252454E54E3
:102F00000A00772061786973312E656E636F64659E
:102F1000722E636F6E6669672E7072655F63616C97
:102F20006962726174656420547275650A00772065
:102F300061786973312E636F6E6669672E73746191
:102F4000727475705F656E636F6465725F696E64DD
:102F500065785F73656172636820547275650A00F5
:102F6000772061786973312E636F6E6669672E739F
:102F70007461727475705F636C6F7365645F6C6F9E
:102F80006F705F636F6E74726F6C20547275650A38
:102F900000772061786973312E636F6E6669672EE2
:102FA000737461727475705F6D6F746F725F63615B
:102FB0006C6962726174696F6E20547275650A0083
:102FC0007720636F6E6669672E656E61626C655F00
:102FD0006272616B655F7265736973746F7220549E
:102FE0007275650A0000000018310008000000201A
:102FF00010000000280100082831000810000020FF
:10300000300B0000440100081001000043000000E4
:10301000F8FFFFFF004040404040404040404141F9
:10302000414141404040404040404040404040409D
:103030004040404040050202020202020202020237
:103040000202020202202020202020202020200234
:1030500002020202020290909090909010101010C4
:103060001010101010101010101010101010101060
:1030700002020202020288888888888808080808F4
:1030800008080808080808080808080808080808C0
:1030900002020202400000000000000000000000E8
:1030A0000000000000000000000000000000000020
:1030B0000000000000000000000000000000000010
:1030C0000000000000000000000000000000000000
:1030D00000000000000000000000000000000000F0
:1030E00000000000000000000000000000000000E0
:1030F00000000000000000000000000000000000D0
:1031000000000000000000000000000000000000BF
:10311000000000000000000001000000100000009E
:083120000024F400000000008F
:04000005080000ED02
:00000001FF
